S01800004763634170706C69636174696F6E34352E7372656322
S11300000C942A000C9434000C9434000C943400A6
S11300100C9434000C9434000C9434000C9436008A
S11300200C9434000C9434000C9434000C9434007C
S11300300C9434000C9434000C9434000C9434006C
S11300400C9434000C9434000C9434000C9434005C
S11300500C94340011241FBECFE5D8E0DEBFCDBF21
S11300600E945A000C9469000C9400001F920F9295
S11300700FB60F9211248F939F93EF93FF93909A4F
S11300808FEF9FEFFC013197F1F7FC013197F1F706
S1130090FC013197F1F7FC013197F1F70197F1F782
S11300A09098FF91EF919F918F910F900FBE0F90B9
S11300B01F9018958F9A8E9A909880E88BBD1ABCE1
S11300C080E48FBD83E08EBD89B7806489BF789456
S10900D0FFCFF894FFCFFE
S9030000FC
